{
  "contractName": "BlockBox",
  "abi": [
    {
      "inputs": [],
      "stateMutability": "nonpayable",
      "type": "constructor"
    },
    {
      "anonymous": false,
      "inputs": [
        {
          "indexed": false,
          "internalType": "uint256",
          "name": "fileId",
          "type": "uint256"
        },
        {
          "indexed": false,
          "internalType": "address payable",
          "name": "uploader",
          "type": "address"
        },
        {
          "indexed": false,
          "internalType": "string",
          "name": "fileHash",
          "type": "string"
        },
        {
          "indexed": false,
          "internalType": "string",
          "name": "fileType",
          "type": "string"
        },
        {
          "indexed": false,
          "internalType": "uint256",
          "name": "fileSize",
          "type": "uint256"
        },
        {
          "indexed": false,
          "internalType": "string",
          "name": "fileName",
          "type": "string"
        },
        {
          "indexed": false,
          "internalType": "uint256",
          "name": "uploadTime",
          "type": "uint256"
        }
      ],
      "name": "FileUploaded",
      "type": "event"
    },
    {
      "anonymous": false,
      "inputs": [
        {
          "indexed": false,
          "internalType": "address",
          "name": "account",
          "type": "address"
        }
      ],
      "name": "Paused",
      "type": "event"
    },
    {
      "anonymous": false,
      "inputs": [
        {
          "indexed": false,
          "internalType": "address",
          "name": "account",
          "type": "address"
        }
      ],
      "name": "Unpaused",
      "type": "event"
    },
    {
      "inputs": [],
      "name": "fileCount",
      "outputs": [
        {
          "internalType": "uint256",
          "name": "",
          "type": "uint256"
        }
      ],
      "stateMutability": "view",
      "type": "function"
    },
    {
      "inputs": [
        {
          "internalType": "uint256",
          "name": "",
          "type": "uint256"
        }
      ],
      "name": "files",
      "outputs": [
        {
          "internalType": "uint256",
          "name": "fileId",
          "type": "uint256"
        },
        {
          "internalType": "address payable",
          "name": "uploader",
          "type": "address"
        },
        {
          "internalType": "string",
          "name": "fileHash",
          "type": "string"
        },
        {
          "internalType": "string",
          "name": "fileType",
          "type": "string"
        },
        {
          "internalType": "uint256",
          "name": "fileSize",
          "type": "uint256"
        },
        {
          "internalType": "string",
          "name": "fileName",
          "type": "string"
        },
        {
          "internalType": "uint256",
          "name": "uploadTime",
          "type": "uint256"
        }
      ],
      "stateMutability": "view",
      "type": "function"
    },
    {
      "inputs": [],
      "name": "name",
      "outputs": [
        {
          "internalType": "string",
          "name": "",
          "type": "string"
        }
      ],
      "stateMutability": "view",
      "type": "function"
    },
    {
      "inputs": [],
      "name": "paused",
      "outputs": [
        {
          "internalType": "bool",
          "name": "",
          "type": "bool"
        }
      ],
      "stateMutability": "view",
      "type": "function"
    },
    {
      "inputs": [],
      "name": "hitPause",
      "outputs": [],
      "stateMutability": "nonpayable",
      "type": "function"
    },
    {
      "inputs": [],
      "name": "unPause",
      "outputs": [],
      "stateMutability": "nonpayable",
      "type": "function"
    },
    {
      "inputs": [
        {
          "internalType": "string",
          "name": "_fileHash",
          "type": "string"
        },
        {
          "internalType": "string",
          "name": "_fileType",
          "type": "string"
        },
        {
          "internalType": "uint256",
          "name": "_fileSize",
          "type": "uint256"
        },
        {
          "internalType": "string",
          "name": "_fileName",
          "type": "string"
        }
      ],
      "name": "uploadFile",
      "outputs": [],
      "stateMutability": "nonpayable",
      "type": "function"
    }
  ],
  "bytecode": "0x60806040526040518060400160405280600881526020017f426c6f636b426f780000000000000000000000000000000000000000000000008152506001908051906020019061004f929190610081565b50600060025534801561006157600080fd5b5060008060006101000a81548160ff021916908315150217905550610126565b828054600181600116156101000203166002900490600052602060002090601f016020900481019282601f106100c257805160ff19168380011785556100f0565b828001600101855582156100f0579182015b828111156100ef5782518255916020019190600101906100d4565b5b5090506100fd9190610101565b5090565b61012391905b8082111561011f576000816000905550600101610107565b5090565b90565b610eeb806101356000396000f3fe608060405234801561001057600080fd5b506004361061007d5760003560e01c80635c975abb1161005b5780635c975abb146103165780639177644d14610338578063f4c714b414610342578063f7b188a5146105095761007d565b8063018468331461008257806306fdde031461027557806343953519146102f8575b600080fd5b6102736004803603608081101561009857600080fd5b81019080803590602001906401000000008111156100b557600080fd5b8201836020820111156100c757600080fd5b803590602001918460018302840111640100000000831117156100e957600080fd5b91908080601f016020809104026020016040519081016040528093929190818152602001838380828437600081840152601f19601f8201169050808301925050505050505091929192908035906020019064010000000081111561014c57600080fd5b82018360208201111561015e57600080fd5b8035906020019184600183028401116401000000008311171561018057600080fd5b91908080601f016020809104026020016040519081016040528093929190818152602001838380828437600081840152601f19601f82011690508083019250505050505050919291929080359060200190929190803590602001906401000000008111156101ed57600080fd5b8201836020820111156101ff57600080fd5b8035906020019184600183028401116401000000008311171561022157600080fd5b91908080601f016020809104026020016040519081016040528093929190818152602001838380828437600081840152601f19601f820116905080830192505050505050509192919290505050610513565b005b61027d610901565b6040518080602001828103825283818151815260200191508051906020019080838360005b838110156102bd5780820151818401526020810190506102a2565b50505050905090810190601f1680156102ea5780820380516001836020036101000a031916815260200191505b509250505060405180910390f35b61030061099f565b6040518082815260200191505060405180910390f35b61031e6109a5565b604051808215151515815260200191505060405180910390f35b6103406109bb565b005b61036e6004803603602081101561035857600080fd5b81019080803590602001909291905050506109c5565b604051808881526020018773ffffffffffffffffffffffffffffffffffffffff1673ffffffffffffffffffffffffffffffffffffffff168152602001806020018060200186815260200180602001858152602001848103845289818151815260200191508051906020019080838360005b838110156103fa5780820151818401526020810190506103df565b50505050905090810190601f1680156104275780820380516001836020036101000a031916815260200191505b50848103835288818151815260200191508051906020019080838360005b83811015610460578082015181840152602081019050610445565b50505050905090810190601f16801561048d5780820380516001836020036101000a031916815260200191505b50848103825286818151815260200191508051906020019080838360005b838110156104c65780820151818401526020810190506104ab565b50505050905090810190601f1680156104f35780820380516001836020036101000a031916815260200191505b509a505050505050505050505060405180910390f35b610511610bef565b005b6000809054906101000a900460ff1615610595576040517f08c379a00000000000000000000000000000000000000000000000000000000081526004018080602001828103825260108152602001807f5061757361626c653a207061757365640000000000000000000000000000000081525060200191505060405180910390fd5b60008151116105a357600080fd5b60008351116105b157600080fd5b60008451116105bf57600080fd5b600073ffffffffffffffffffffffffffffffffffffffff163373ffffffffffffffffffffffffffffffffffffffff1614156105f957600080fd5b6000821161060657600080fd5b6002600081548092919060010191905055506040518060e0016040528060025481526020013373ffffffffffffffffffffffffffffffffffffffff168152602001858152602001848152602001838152602001828152602001428152506003600060025481526020019081526020016000206000820151816000015560208201518160010160006101000a81548173ffffffffffffffffffffffffffffffffffffffff021916908373ffffffffffffffffffffffffffffffffffffffff16021790555060408201518160020190805190602001906106e5929190610e10565b506060820151816003019080519060200190610702929190610e10565b506080820151816004015560a0820151816005019080519060200190610729929190610e10565b5060c082015181600601559050507f8fb72750bdb8f03e330e77180e9340372b2a2c33b67636c279c0edadc375c832600254338686868642604051808881526020018773ffffffffffffffffffffffffffffffffffffffff1673ffffffffffffffffffffffffffffffffffffffff168152602001806020018060200186815260200180602001858152602001848103845289818151815260200191508051906020019080838360005b838110156107ed5780820151818401526020810190506107d2565b50505050905090810190601f16801561081a5780820380516001836020036101000a031916815260200191505b50848103835288818151815260200191508051906020019080838360005b83811015610853578082015181840152602081019050610838565b50505050905090810190601f1680156108805780820380516001836020036101000a031916815260200191505b50848103825286818151815260200191508051906020019080838360005b838110156108b957808201518184015260208101905061089e565b50505050905090810190601f1680156108e65780820380516001836020036101000a031916815260200191505b509a505050505050505050505060405180910390a150505050565b60018054600181600116156101000203166002900480601f0160208091040260200160405190810160405280929190818152602001828054600181600116156101000203166002900480156109975780601f1061096c57610100808354040283529160200191610997565b820191906000526020600020905b81548152906001019060200180831161097a57829003601f168201915b505050505081565b60025481565b60008060009054906101000a900460ff16905090565b6109c3610bf9565b565b60036020528060005260406000206000915090508060000154908060010160009054906101000a900473ffffffffffffffffffffffffffffffffffffffff1690806002018054600181600116156101000203166002900480601f016020809104026020016040519081016040528092919081815260200182805460018160011615610100020316600290048015610a9d5780601f10610a7257610100808354040283529160200191610a9d565b820191906000526020600020905b815481529060010190602001808311610a8057829003601f168201915b505050505090806003018054600181600116156101000203166002900480601f016020809104026020016040519081016040528092919081815260200182805460018160011615610100020316600290048015610b3b5780601f10610b1057610100808354040283529160200191610b3b565b820191906000526020600020905b815481529060010190602001808311610b1e57829003601f168201915b505050505090806004015490806005018054600181600116156101000203166002900480601f016020809104026020016040519081016040528092919081815260200182805460018160011615610100020316600290048015610bdf5780601f10610bb457610100808354040283529160200191610bdf565b820191906000526020600020905b815481529060010190602001808311610bc257829003601f168201915b5050505050908060060154905087565b610bf7610d01565b565b6000809054906101000a900460ff1615610c7b576040517f08c379a00000000000000000000000000000000000000000000000000000000081526004018080602001828103825260108152602001807f5061757361626c653a207061757365640000000000000000000000000000000081525060200191505060405180910390fd5b60016000806101000a81548160ff0219169083151502179055507f62e78cea01bee320cd4e420270b5ea74000d11b0c9f74754ebdbfc544b05a258610cbe610e08565b604051808273ffffffffffffffffffffffffffffffffffffffff1673ffffffffffffffffffffffffffffffffffffffff16815260200191505060405180910390a1565b6000809054906101000a900460ff16610d82576040517f08c379a00000000000000000000000000000000000000000000000000000000081526004018080602001828103825260148152602001807f5061757361626c653a206e6f742070617573656400000000000000000000000081525060200191505060405180910390fd5b60008060006101000a81548160ff0219169083151502179055507f5db9ee0a495bf2e6ff9c91a7834c1ba4fdd244a5e8aa4e537bd38aeae4b073aa610dc5610e08565b604051808273ffffffffffffffffffffffffffffffffffffffff1673ffffffffffffffffffffffffffffffffffffffff16815260200191505060405180910390a1565b600033905090565b828054600181600116156101000203166002900490600052602060002090601f016020900481019282601f10610e5157805160ff1916838001178555610e7f565b82800160010185558215610e7f579182015b82811115610e7e578251825591602001919060010190610e63565b5b509050610e8c9190610e90565b5090565b610eb291905b80821115610eae576000816000905550600101610e96565b5090565b9056fea26469706673582212206cf6d261d99b1b3c82e4ed185b5fbed3b0e9586d819dfb632587130458f22acb64736f6c63430006000033",
  "source": "pragma solidity ^0.6.0;\r\n\r\nimport \"@openzeppelin/contracts/utils/Pausable.sol\";\r\n\r\ncontract BlockBox is Pausable {\r\n    // Global Varaibles\r\n    string public name = \"BlockBox\";\r\n    uint256 public fileCount = 0;\r\n    mapping(uint256 => File) public files;\r\n\r\n    // Struct\r\n    struct File {\r\n        uint256 fileId;\r\n        address payable uploader;\r\n        string fileHash;\r\n        string fileType;\r\n        uint256 fileSize;\r\n        string fileName;\r\n        uint256 uploadTime;\r\n    }\r\n\r\n    // Events\r\n    event FileUploaded(\r\n        uint256 fileId,\r\n        address payable uploader,\r\n        string fileHash,\r\n        string fileType,\r\n        uint256 fileSize,\r\n        string fileName,\r\n        uint256 uploadTime\r\n    );\r\n\r\n    //Modifiers\r\n\r\n    //Constructor\r\n    constructor() public Pausable() {}\r\n\r\n    // Functions\r\n\r\n    function hitPause() external {\r\n        _pause();\r\n    }\r\n\r\n    function unPause() external {\r\n        _unpause();\r\n    }\r\n\r\n    function uploadFile(\r\n        string memory _fileHash,\r\n        string memory _fileType,\r\n        uint256 _fileSize,\r\n        string memory _fileName\r\n    ) public whenNotPaused() {\r\n        // Require a file fileName\r\n        require(bytes(_fileName).length > 0);\r\n        // Require a file type\r\n        require(bytes(_fileType).length > 0);\r\n        // Require a file hash true\r\n        require(bytes(_fileHash).length > 0);\r\n\r\n        // Require a uploader address\r\n        require(msg.sender != address(0));\r\n        require(_fileSize > 0);\r\n        fileCount++;\r\n        files[fileCount] = File(\r\n            fileCount,\r\n            msg.sender,\r\n            _fileHash,\r\n            _fileType,\r\n            _fileSize,\r\n            _fileName,\r\n            now\r\n        );\r\n        //Event Trigger\r\n        emit FileUploaded(\r\n            fileCount,\r\n            msg.sender,\r\n            _fileHash,\r\n            _fileType,\r\n            _fileSize,\r\n            _fileName,\r\n            now\r\n        );\r\n    }\r\n}\r\n",
  "sourcePath": "F:/ConsenysBootcamp/BlockBox/contracts/BlockBox.sol",
  "compiler": {
    "name": "solc",
    "version": "0.6.0+commit.26b70077.Emscripten.clang"
  },
  "schemaVersion": "3.3.2",
  "updatedAt": "2020-11-25T00:54:58.924Z",
  "devdoc": {
    "methods": {
      "paused()": {
        "details": "Returns true if the contract is paused, and false otherwise."
      }
    }
  },
  "userdoc": {
    "methods": {}
  }
}